44411001                CLA10000000011000000        244158900001CHE20000103          N          20120529A B AD                                                                           UP20130529                                                                                                     000000000017000                                                                                                                                     1P               CALEB               K                   STALLIN                                                                                                                                                        19480622SSN 666123456                                                                                                         DL99456                  GA                                                                                                    P1231 W FRAMANAR ST                                                                                                                                                                                                                                                                                       EL DORADO                     AR   71730                                                                                                                                                                                                                                                            8708640679                                                                                                                                                                                                                                                                                                                                                                                                                                                                                                                                                                                                                                                                                                                                                                                                                                                                                            N                                                                                                                 N                                             N                                                                                                                                                                                                                        
44411002                CLA10000000011000000        244158900002CHE20090906          Y          20151018A B C                                                                            UP20161018                                                                                                     000000000038300                                                                                                                                     1BGOOGLE CORPORATIONS                                                                                                                                                                                01                 19600101SSN 666123457                                                                                                         DL87556                  AZ                                                                                                    P1234 HBALACKNES DR                                                                                                                                                                                                                                                                                       ALPHARETTA                    GA   300045657                                                                                                                                                                                                                                                                                                                                                                                                                                                                                                                                                                                                                                                                                                                                                                                                                                                                                                                                                                                                                                                                                                                                                              N                                                                                                                 N                                             N                                                                                                                                                                                                                        
44411003                CLA10000000011000000        244158900003CHE20000103          N          20120529A B AD                                                                           UP20130529                                                                                                     000000000017000                                                                                                                                     1P               CALEB               K                   STALLIN                                                                                                                                                        19480622SSN 666123456                                                                                                         DL99456                  GA                                                                                                    P1231 W FRAMANAR ST                                                                                                                                                                                                                                                                                       EL DORADO                     AR   71730                                                                                                                                                                                                                                                            8708640679                                                                                                                                                                                                                                                                                                                                                                                                                                                                                                                                                                                                                                                                                                                                                                                                                                                                                            N                                                                                                                 N                                             N                                                                                                                                                                                                                        
44411004                CLA10000000011000000        244158900004CHE20090906          Y          20151018A B C                                                                            UP20161018                                                                                                     000000000038300                                                                                                                                     1BGOOGLE CORPORATIONS                                                                                                                                                                                01                 19600101SSN 666123457                                                                                                         DL87556                  AZ                                                                                                    P1234 HBALACKNES DR                                                                                                                                                                                                                                                                                       ALPHARETTA                    GA   300045657                                                                                                                                                                                                                                                                                                                                                                                                                                                                                                                                                                                                                                                                                                                                                                                                                                                                                                                                                                                                                                                                                                                                                              N                                                                                                                 N                                             N                                                                                                                                                                                                                        
44411005                CLA10000000011000000        244158900005CHE20000103          N          20120529A B AD                                                                           UP20130529                                                                                                     000000000017000                                                                                                                                     1P               CALEB               K                   STALLIN                                                                                                                                                        19480622SSN 666123456                                                                                                         DL99456                  GA                                                                                                    P1231 W FRAMANAR ST                                                                                                                                                                                                                                                                                       EL DORADO                     AR   71730                                                                                                                                                                                                                                                            8708640679                                                                                                                                                                                                                                                                                                                                                                                                                                                                                                                                                                                                                                                                                                                                                                                                                                                                                            N                                                                                                                 N                                             N                                                                                                                                                                                                                        
44411006                CLA10000000011000000        244158900006CHE20090906          Y          20151018A B C                                                                            UP20161018                                                                                                     000000000038300                                                                                                                                     1BGOOGLE CORPORATIONS                                                                                                                                                                                01                 19600101SSN 666123457                                                                                                         DL87556                  AZ                                                                                                    P1234 HBALACKNES DR                                                                                                                                                                                                                                                                                       ALPHARETTA                    GA   300045657                                                                                                                                                                                                                                                                                                                                                                                                                                                                                                                                                                                                                                                                                                                                                                                                                                                                                                                                                                                                                                                                                                                                                              N                                                                                                                 N                                             N                                                                                                                                                                                                                        
44411007                CLA10000000011000000        244158900007CHE20000103          N          20120529A B AD                                                                           UP20130529                                                                                                     000000000017000                                                                                                                                     1P               CALEB               K                   STALLIN                                                                                                                                                        19480622SSN 666123456                                                                                                         DL99456                  GA                                                                                                    P1231 W FRAMANAR ST                                                                                                                                                                                                                                                                                       EL DORADO                     AR   71730                                                                                                                                                                                                                                                            8708640679                                                                                                                                                                                                                                                                                                                                                                                                                                                                                                                                                                                                                                                                                                                                                                                                                                                                                            N                                                                                                                 N                                             N                                                                                                                                                                                                                        
44411008                CLA10000000011000000        244158900008CHE20090906          Y          20151018A B C                                                                            UP20161018                                                                                                     000000000038300                                                                                                                                     1BGOOGLE CORPORATIONS                                                                                                                                                                                01                 19600101SSN 666123457                                                                                                         DL87556                  AZ                                                                                                    P1234 HBALACKNES DR                                                                                                                                                                                                                                                                                       ALPHARETTA                    GA   300045657                                                                                                                                                                                                                                                                                                                                                                                                                                                                                                                                                                                                                                                                                                                                                                                                                                                                                                                                                                                                                                                                                                                                                              N                                                                                                                 N                                             N                                                                                                                                                                                                                        
44411009                CLA10000000011000000        244158900009CHE20000103          N          20120529A B AD                                                                           UP20130529                                                                                                     000000000017000                                                                                                                                     1P               CALEB               K                   STALLIN                                                                                                                                                        19480622SSN 666123456                                                                                                         DL99456                  GA                                                                                                    P1231 W FRAMANAR ST                                                                                                                                                                                                                                                                                       EL DORADO                     AR   71730                                                                                                                                                                                                                                                            8708640679                                                                                                                                                                                                                                                                                                                                                                                                                                                                                                                                                                                                                                                                                                                                                                                                                                                                                            N                                                                                                                 N                                             N                                                                                                                                                                                                                        
44411010                CLA10000000011000000        244158900010CHE20090906          Y          20151018A B C                                                                            UP20161018                                                                                                     000000000038300                                                                                                                                     1BGOOGLE CORPORATIONS                                                                                                                                                                                01                 19600101SSN 666123457                                                                                                         DL87556                  AZ                                                                                                    P1234 HBALACKNES DR                                                                                                                                                                                                                                                                                       ALPHARETTA                    GA   300045657                                                                                                                                                                                                                                                                                                                                                                                                                                                                                                                                                                                                                                                                                                                                                                                                                                                                                                                                                                                                                                                                                                                                                              N                                                                                                                 N                                             N                                                                                                                                                                                                                        